:020000040800F2
:1000000000C00020755A0008E5280008E72800080D
:10001000E9280008EB280008ED280008000000008F
:10002000000000000000000000000000F153000884
:10003000EF2800080000000091540008D554000883
:10004000BD5A0008BD5A0008BD5A0008BD5A000834
:10005000BD5A0008BD5A0008BD5A0008BD5A000824
:10006000BD5A0008BD5A0008BD5A0008BD5A000814
:10007000BD5A0008F1280008BD5A000801290008EF
:10008000BD5A0008BD5A0008BD5A0008BD5A0008F4
:10009000BD5A0008BD5A0008BD5A0008BD5A0008E4
:1000A000BD5A0008BD5A0008BD5A0008BD5A0008D4
:1000B000BD5A0008BD5A0008BD5A0008BD5A0008C4
:1000C000BD5A0008BD5A0008BD5A0008BD5A0008B4
:1000D000BD5A0008BD5A0008BD5A0008BD5A0008A4
:1000E000BD5A0008BD5A0008BD5A0008BD5A000894
:1000F000BD5A0008BD5A0008BD5A0008BD5A000884
:10010000BD5A0008BD5A0008BD5A0008BD5A000873
:10011000BD5A0008BD5A000811290008BD5A000840
:10012000BD5A0008BD5A0008BD5A0008BD5A000853
:1001300000000000000000000000000000000000BF
:1001400000000000000000000000000000000000AF
:10015000000000000000000000000000000000009F
:10016000000000000000000000000000000000008F
:10017000000000000000000000000000000000007F
:10018000000000000000000000000000000000006F
:10019000000000000000000000000000000000005F
:1001A000000000000000000000000000000000004F
:1001B000000000000000000000000000000000003F
:1001C000000000000000000000000000000000002F
:1001D000000000000000000000000000000000001F
:0401E0005FF8E0F1F3
:1001F00010B5054C237833B9044B13B10448AFF361
:1002000000800123237010BD8C0900200000000035
:100210005092000808B5034B1BB103490348AFF3E4
:10022000008008BD000000009009002050920008E6
:10023000034613F8012B002AFBD1181A0138704726
:100240004FF0FF0C1CEAD0521EBF1CEAD15392EAB9
:100250000C0F93EA0C0F6FD01A4480EA010C400295
:1002600018BF5FEA41211ED04FF0006343EA5010EF
:1002700043EA5111A0FB01310CF00040B1F5000F31
:100280003EBF490041EAD3715B0040EA010062F1E0
:100290007F02FD2A1DD8B3F1004F40EBC25008BFCA
:1002A00020F00100704790F0000F0CF0004C08BFE8
:1002B00049024CEA502040EA51207F3AC2BFD2F1B5
:1002C000FF0340EAC250704740F400004FF00003C3
:1002D000013A5DDC12F1190FDCBF00F000407047FD
:1002E000C2F10002410021FA02F1C2F1200200FA3B
:1002F00002FC5FEA310040F1000053EA4C0308BF02
:1003000020EADC70704792F0000F00F0004C02BF52
:10031000400010F4000F013AF9D040EA0C0093F0CD
:10032000000F01F0004C02BF490011F4000F013B27
:10033000F9D041EA0C018FE70CEAD15392EA0C0F95
:1003400018BF93EA0C0F0AD030F0004C18BF31F000
:10035000004CD8D180EA010000F00040704790F0D6
:10036000000F17BF90F0004F084691F0000F91F07A
:10037000004F14D092EA0C0F01D142020FD193EA40
:100380000C0F03D14B0218BF084608D180EA0100C8
:1003900000F0004040F0FE4040F40000704740F0A4
:1003A000FE4040F44000704781F0004102E000BF91
:1003B00083F0004330B54FEA41044FEA430594EA25
:1003C000050F08BF90EA020F1FBF54EA000C55EA60
:1003D000020C7FEA645C7FEA655C00F0E2804FEA31
:1003E0005454D4EB5555B8BF6D420CDD2C4480EA13
:1003F000020281EA030382EA000083EA010180EA43
:10040000020281EA0303362D88BF30BD11F0004F90
:100410004FEA01314FF4801C4CEA113102D04042C6
:1004200061EB410113F0004F4FEA03334CEA133301
:1004300002D0524263EB430394EA050F00F0A78019
:10044000A4F10104D5F1200E0DDB02FA0EFC22FA14
:1004500005F2801841F1000103FA0EF2801843FA08
:1004600005F359410EE0A5F120050EF1200E012AF9
:1004700003FA0EFC28BF4CF0020C43FA05F3C01837
:1004800051EBE37101F0004507D54FF0000EDCF1B0
:10049000000C7EEB00006EEB0101B1F5801F1BD359
:1004A000B1F5001F0CD349085FEA30004FEA3C0C5D
:1004B00004F101044FEA445212F5800F80F09A8053
:1004C000BCF1004F08BF5FEA500C50F1000041EB57
:1004D000045141EA050130BD5FEA4C0C404141EB5B
:1004E0000101013C28BFB1F5801FE9D291F0000F56
:1004F00004BF01460020B1FA81F308BF2033A3F105
:100500000B03B3F120020CDA0C3208DD02F1140CFB
:10051000C2F10C0201FA0CF021FA02F10CE002F136
:100520001402D8BFC2F1200C01FA02F120FA0CFC2F
:10053000DCBF41EA0C019040E41AA2BF01EB045178
:10054000294330BD6FEA04041F3C1CDA0C340EDC76
:1005500004F11404C4F1200220FA04F001FA02F3B9
:1005600040EA030021FA04F345EA030130BDC4F177
:100570000C04C4F1200220FA02F001FA04F340EA6C
:100580000300294630BD21FA04F0294630BD94F01D
:10059000000F83F4801306BF81F480110134013D04
:1005A0004EE77FEA645C18BF7FEA655C29D094EA75
:1005B000050F08BF90EA020F05D054EA000C04BFF3
:1005C0001946104630BD91EA030F1EBF00210020DE
:1005D00030BD5FEA545C05D14000494128BF41F07D
:1005E000004130BD14F580043CBF01F5801130BDE1
:1005F00001F0004545F0FE4141F470014FF000006C
:1006000030BD7FEA645C1ABF194610467FEA655C1C
:100610001CBF0B46024650EA013406BF52EA0335BE
:1006200091EA030F41F4002130BD00BF90F0000FAC
:1006300004BF0021704730B54FF4806404F13204E8
:100640004FF000054FF0000150E700BF90F0000FA1
:1006500004BF0021704730B54FF4806404F13204C8
:1006600010F0004548BF40424FF000013EE700BF98
:1006700042004FEAE2014FEA31014FEA02701FBF28
:1006800012F07F4393F07F4F81F06051704732F05A
:100690007F4208BF704793F07F4F04BF41F40021B1
:1006A000704730B54FF4607401F0004521F000410F
:1006B0001CE700BF50EA010208BF704730B54FF099
:1006C00000050AE050EA010208BF704730B511F09A
:1006D000004502D5404261EB41014FF4806404F1D2
:1006E00032045FEA915C3FF4D8AE4FF003025FEA58
:1006F000DC0C18BF03325FEADC0C18BF033202EBDC
:10070000DC02C2F1200300FA03FC20FA02F001FA35
:1007100003FE40EA0E0021FA02F11444BDE600BFD8
:1007200070B54FF0FF0C4CF4E06C1CEA11541DBF87
:100730001CEA135594EA0C0F95EA0C0F00F0DEF852
:100740002C4481EA030621EA4C5123EA4C5350EA37
:10075000013518BF52EA033541F4801143F4801388
:1007600038D0A0FB02CE4FF00005E1FB02E506F019
:100770000042E0FB03E54FF00006E1FB03569CF06E
:10078000000F18BF4EF0010EA4F1FF04B6F5007F74
:1007900064F5407404D25FEA4E0E6D4146EB0606E6
:1007A00042EAC62141EA55514FEAC52040EA5E506F
:1007B0004FEACE2EB4F1FD0C88BFBCF5E06F1ED819
:1007C000BEF1004F08BF5FEA500E50F1000041EB50
:1007D000045170BD06F0004646EA010140EA0200FD
:1007E00081EA0301B4EB5C04C2BFD4EB0C0541EA1F
:1007F000045170BD41F480114FF0000E013C00F334
:10080000AB8014F1360FDEBF002001F0004170BD57
:10081000C4F10004203C35DA0C341BDC04F1140470
:10082000C4F1200500FA05F320FA04F001FA05F2FC
:1008300040EA020001F0004221F0004110EBD370C9
:1008400021FA04F642EB06015EEA430E08BF20EAF5
:10085000D37070BDC4F10C04C4F1200500FA04F398
:1008600020FA05F001FA04F240EA020001F000412A
:1008700010EBD37041F100015EEA430E08BF20EA9D
:10088000D37070BDC4F1200500FA05F24EEA020EE5
:1008900020FA04F301FA05F243EA020321FA04F014
:1008A00001F0004121FA04F220EA020000EBD370CB
:1008B0005EEA430E08BF20EAD37070BD94F0000FCB
:1008C0000FD101F00046400041EB010111F4801FFF
:1008D00008BF013CF7D041EA060195F0000F18BFB0
:1008E000704703F00046520043EB030313F4801FEC
:1008F00008BF013DF7D043EA0603704794EA0C0FA6
:100900000CEA135518BF95EA0C0F0CD050EA4106BB
:1009100018BF52EA4306D1D181EA030101F0004138
:100920004FF0000070BD50EA410606BF1046194660
:1009300052EA430619D094EA0C0F02D150EA01366C
:1009400013D195EA0C0F05D152EA03361CBF1046AD
:1009500019460AD181EA030101F0004141F0FE414C
:1009600041F470014FF0000070BD41F0FE4141F4D0
:10097000780170BD70B54FF0FF0C4CF4E06C1CEAD0
:1009800011541DBF1CEA135594EA0C0F95EA0C0F85
:1009900000F0A7F8A4EB050481EA030E52EA033540
:1009A0004FEA013100F088804FEA03334FF0805561
:1009B00045EA131343EA12634FEA022245EA11158E
:1009C00045EA10654FEA00260EF000419D4208BF3F
:1009D000964244F1FD0404F5407402D25B084FEAEC
:1009E0003202B61A65EB03055B084FEA32024FF498
:1009F00080104FF4002CB6EB020E75EB030E22BFF5
:100A0000B61A754640EA0C005B084FEA3202B6EBB4
:100A1000020E75EB030E22BFB61A754640EA5C0063
:100A20005B084FEA3202B6EB020E75EB030E22BFF3
:100A3000B61A754640EA9C005B084FEA3202B6EBF4
:100A4000020E75EB030E22BFB61A754640EADC00B3
:100A500055EA060E18D04FEA051545EA16754FEA15
:100A600006164FEAC30343EA52734FEAC2025FEA33
:100A70001C1CC0D111F4801F0BD141EA00014FF0C2
:100A800000004FF0004CB6E711F4801F04BF014393
:100A90000020B4F1FD0C88BFBCF5E06F3FF6AFAEAF
:100AA000B5EB030C04BFB6EB020C5FEA500C50F13F
:100AB000000041EB045170BD0EF0004E4EEA1131C2
:100AC00014EB5C04C2BFD4EB0C0541EA045170BDC9
:100AD00041F480114FF0000E013C90E645EA060E0D
:100AE0008DE60CEA135594EA0C0F08BF95EA0C0F3B
:100AF0003FF43BAF94EA0C0F0AD150EA01347FF483
:100B000034AF95EA0C0F7FF425AF104619462CE759
:100B100095EA0C0F06D152EA03353FF4FDAE1046BC
:100B2000194622E750EA410618BF52EA43067FF40D
:100B3000C5AE50EA41047FF40DAF52EA43057FF49D
:100B4000EBAE12E74FF0FF3C06E000BF4FF0010CA8
:100B500002E000BF4FF0010C4DF804CD4FEA410C0C
:100B60007FEA6C5C4FEA430C18BF7FEA6C5C1BD0D9
:100B700001B050EA410C0CBF52EA430C91EA030F5A
:100B800002BF90EA020F0020704710F1000F91EAB7
:100B9000030F58BF994208BF90422CBFD8176FEA85
:100BA000E37040F0010070474FEA410C7FEA6C5C53
:100BB00002D150EA013C07D14FEA430C7FEA6C5C5A
:100BC000D6D152EA033CD3D05DF8040B704700BF86
:100BD0008446104662468C461946634600E000BFD4
:100BE00001B5FFF7B7FF002848BF10F1000F01BDA6
:100BF0004DF808EDFFF7F4FF0CBF012000205DF871
:100C000008FB00BF4DF808EDFFF7EAFF34BF0120F5
:100C100000205DF808FB00BF4DF808EDFFF7E0FF8E
:100C200094BF012000205DF808FB00BF4DF808EDDF
:100C3000FFF7CEFF94BF012000205DF808FB00BF46
:100C40004DF808EDFFF7C4FF34BF012000205DF828
:100C500008FB00BF4FEA410C7FEA6C5C02D150EA0E
:100C6000013C0AD14FEA430C7FEA6C5C02D152EAA4
:100C7000033C02D14FF0000070474FF00100704775
:100C80004FEA410212F5001215D211D56FF47873B4
:100C9000B3EB625212D94FEAC12343F0004343EA57
:100CA000505311F0004F23FA02F018BF4042704732
:100CB0004FF00000704750EA013005D111F00040BC
:100CC00008BF6FF0004070474FF00000704700BF52
:100CD0004A0011D212F5001211D20DD56FF47873BB
:100CE000B3EB62520ED44FEAC12343F0004343EA10
:100CF000505323FA02F070474FF00000704750EA5B
:100D0000013002D14FF0FF3070474FF000007047C4
:100D10004FEA4102B2F1E04324BFB3F5001CDCF11D
:100D2000FE5C0DD901F0004C4FEAC0024CEA507055
:100D3000B2F1004F40EB830008BF20F00100704784
:100D400011F0804F21D113F13872BCBF01F0004087
:100D5000704741F480114FEA5252C2F11802C2F1B9
:100D6000200C10FA0CF320FA02F018BF40F001003A
:100D70004FEAC1234FEAD32303FA0CFC40EA0C00EC
:100D800023FA02F34FEA4303CCE77FEA625307D129
:100D900050EA01331EBF4FF0FE4040F44000704760
:100DA00001F0004040F0FE4040F40000704700BFFA
:100DB00080F0004002E000BF81F0004142001FBF10
:100DC0005FEA410392EA030F7FEA226C7FEA236C19
:100DD0006AD04FEA1262D2EB1363C1BFD21841400E
:100DE00048404140B8BF5B42192B88BF704710F0A4
:100DF000004F40F4000020F07F4018BF404211F047
:100E0000004F41F4000121F07F4118BF494292EAAE
:100E1000030F3FD0A2F1010241FA03FC10EB0C00DA
:100E2000C3F1200301FA03F100F0004302D5494267
:100E300060EB4000B0F5000F13D3B0F1807F06D314
:100E400040084FEA310102F10102FE2A51D2B1F10C
:100E5000004F40EBC25008BF20F0010040EA030001
:100E60007047490040EB0000013A28BFB0F5000F81
:100E7000EDD2B0FA80FCACF1080CB2EB0C0200FA37
:100E80000CF0AABF00EBC25052421843BCBFD04086
:100E90001843704792F0000F81F4000106BF80F400
:100EA00000000132013BB5E74FEA41037FEA226CC3
:100EB00018BF7FEA236C21D092EA030F04D092F08E
:100EC000000F08BF0846704790EA010F1CBF0020C2
:100ED000704712F07F4F04D1400028BF40F000401F
:100EE000704712F100723CBF00F50000704700F03F
:100EF000004343F0FE4040F4000070477FEA226266
:100F000016BF08467FEA23630146420206BF5FEA36
:100F1000412390EA010F40F4800070474FF0000336
:100F200004E000BF10F0004348BF40425FEA000CFD
:100F300008BF704743F0964301464FF000001CE0A5
:100F400050EA010208BF70474FF000030AE000BFFB
:100F500050EA010208BF704711F0004302D5404239
:100F600061EB41015FEA010C02BF844601460020AB
:100F700043F0B64308BFA3F18053A3F50003BCFAC6
:100F80008CF2083AA3EBC25310DB01FA02FC634473
:100F900000FA02FCC2F12002BCF1004F20FA02F27A
:100FA00043EB020008BF20F00100704702F120026D
:100FB00001FA02FCC2F1200250EA4C0021FA02F2CE
:100FC00043EB020008BF20EADC70704742000ED2FB
:100FD000B2F1FE4F0BD34FF09E03B3EB126209D474
:100FE0004FEA002343F0004323FA02F070474FF02A
:100FF0000000704712F1610F01D1420202D14FF09F
:10100000FF3070474FF00000704700BF08B502681E
:10101000034B9A4200D008BD01F0C0FDFBE700BFC2
:101020000010004072B6FEE700B591B02822002102
:1010300006A804F07FFD0023019302930393049319
:101040000593012206924FF4803307930A920222FD
:101050000D920E934FF4C0130F9306A801F0DAFD22
:1010600080B90F23019302210291002303934FF4CF
:1010700080620492059301A802F00CF820B911B027
:101080005DF804FBFFF7CEFFFFF7CCFF08B501F0DA
:1010900073FDFFF7C9FF00F043FE04F0C9FC01F047
:1010A0004DFB01F0A7FC01F0FBF901F0D3FA01F0D0
:1010B000A5FB01F0C3FC04F097FA04F0AFFA01F0CD
:1010C00099F903F0F9FFFEE7F0B585B00546012474
:1010D0008DF80F4042238DF80E3000228DF80D2040
:1010E0001021194802F0F0F9184E642700972346A2
:1010F0002A460DF10F01304602F009FE0A2000F0E9
:10110000F5FD009723462A190DF10E01304602F035
:10111000FEFD0A2000F0EAFD02240CE064230093A7
:1011200001232A190DF10D01084802F0F0FD0A20F3
:1011300000F0DCFD0134082CF0DD01221021024812
:1011400002F0C2F905B0F0BD00080140F40D002026
:1011500010B504460B791B0983F0010303F001036A
:1011600003734B78732B08D0412B1FD002230370DD
:10117000002303714371837110BD002303700B7949
:1011800003F00503012B0CD0042B0CD04B79803BD2
:1011900023718B79C3F17F036371CB79803BA3719A
:1011A000EAE74370F2E700234370EFE7012303709F
:1011B0004370037A642B05D900230371CE22427158
:1011C0008371D9E74389B3F5C86F08D2F3B90371C6
:1011D00043718378012B12D00023A371CCE7002345
:1011E000037143718371437040F2DC5001F0E8FCFD
:1011F0000123637040F2DC5001F0E2FCBCE7C378ED
:1012000013B96FF04F03E8E75023E6E7C279A2F184
:10121000780303EBD3735B100371782A06D901239B
:10122000C3707F2363710023A371A5E70023C370FC
:10123000F7E738B504460D461046BDF81010256096
:10124000626023816181002202F03EF9002221893F
:10125000606802F039F938BD2DE9F04104460D1EF1
:1012600026DD01224189406802F02EF90022218901
:10127000606802F029F94FF08043D3F82C802846AB
:10128000FFF7E4F90022104B21F000473946FFF741
:1012900071FB06460F464046FFF7C8F932463B460B
:1012A000FFF73EFA2468FFF713FD2060BDE8F081E8
:1012B00001220189406802F007F900226189606813
:1012C00002F002F9D7E700BF00006840F0B585B032
:1012D0000F4616461D460A9B002400940194029472
:1012E000039493F904C0CCF1000293F90510521A4B
:1012F00093F90630A2EB030ECDF800E0ACEB010C45
:1013000003EB0C0101911A440292ACEB030303932B
:10131000A4460BE014F1C00F06DA6FF0BF0204AB75
:1013200003EB8C0343F8102C0CF1010CBCF1030F00
:101330000DDC04AB03EB8C0353F8104CC02CE9DD3F
:10134000C02204AB03EB8C0343F8102CECE70099AC
:10135000FFF782FF01993846FFF77EFF029930467A
:10136000FFF77AFF03992846FFF776FF05B0F0BD37
:1013700084B038B504AC84E80F00002414E004AB5A
:1013800003EB84035B68104DEB62E86AFFF74EF9EC
:101390000BA3D3E90023FFF7C3F9FFF799FCE86338
:1013A000642001F00DFC0134049BA342E7DC064BF2
:1013B0000022DA62DA63BDE8384004B0704700BF4B
:1013C0009A9999999999B93F0034014010B582B022
:1013D0008DF807000C4C01224021204602F074F8E1
:1013E00000228021204602F06FF8642301220DF1D3
:1013F0000701064802F0AFFB01228021204602F0DF
:1014000063F802B010BD00BF001001404C0E002078
:1014100030B583B0030A8DF807308DF80600154CFF
:1014200001224021204602F04FF800228021204670
:1014300002F04AF8104D642301220DF107012846FD
:1014400002F089FB01228021204602F03DF80022B3
:101450008021204602F038F8642301220DF10601B4
:10146000284602F078FB01228021204602F02CF869
:1014700003B030BD001001404C0E002010B582B00A
:101480008DF807000C4C00224021204602F01CF889
:1014900000228021204602F017F8642301220DF17A
:1014A0000701064802F057FB01228021204602F086
:1014B0000BF802B010BD00BF001001404C0E002020
:1014C00010B5734C00224FF48051204601F0FCFF10
:1014D00000224FF48041204601F0F6FF322001F057
:1014E0006FFB01224FF48041204601F0EDFF3220D6
:1014F00001F066FB01224FF48051204601F0E4FF29
:101500001120FFF7BBFF0A2001F05AFB3620FFF73E
:10151000B5FF0020FFF75AFF3A20FFF7AFFF052085
:10152000FFF754FFB220FFF7A9FF0C20FFF74EFF93
:101530000C20FFF74BFF0020FFF748FF3320FFF799
:1015400045FF3320FFF742FFB720FFF797FF352015
:10155000FFF73CFFBB20FFF791FF3520FFF736FF79
:10156000C020FFF78BFF2C20FFF730FFC220FFF7D2
:1015700085FF0120FFF72AFFC320FFF77FFF13201D
:10158000FFF724FFC420FFF779FF2020FFF71EFF9D
:10159000C620FFF773FF0F20FFF718FFCA20FFF7E1
:1015A0006DFF0F20FFF712FFC820FFF767FF08202D
:1015B000FFF70CFF5520FFF761FF9020FFF706FFB4
:1015C000D020FFF75BFFA420FFF700FFA120FFF76B
:1015D000FDFEE020FFF752FFD020FFF7F7FE0020CE
:1015E000FFF7F4FE0620FFF7F1FE0920FFF7EEFEFD
:1015F0000B20FFF7EBFE2A20FFF7E8FE3C20FFF769
:10160000E5FE5520FFF7E2FE4B20FFF7DFFE082046
:10161000FFF7DCFE1620FFF7D9FE1420FFF7D6FEF9
:101620001920FFF7D3FE2020FFF7D0FEE120FFF7BF
:1016300025FFD020FFF7CAFE0020FFF7C7FE0620D7
:10164000FFF7C4FE0920FFF7C1FE0B20FFF7BEFE27
:101650002920FFF7BBFE3620FFF7B8FE5420FFF726
:10166000B5FE4B20FFF7B2FE0D20FFF7AFFE1620B0
:10167000FFF7ACFE1420FFF7A9FE2120FFF7A6FE1E
:101680002020FFF7A3FE2920FFF7F8FE10BD00BFC2
:10169000000C0140F8B507460D4616461C462A20A8
:1016A000FFF7ECFE3846FFF7B3FE3046FFF7B0FE1B
:1016B0002B20FFF7E3FE2846FFF7AAFE2046FFF7A0
:1016C000A7FE2C20FFF7DAFEF8BDC308880840010A
:1016D00000EBC32080B200EBD20080B270472DE94E
:1016E000F8430746884691461D46BDF82060013BF9
:1016F00001399BB289B2FFF7CDFF08E03046FFF712
:1017000087FE0134A4B2AC42F8D30137BFB24F45D3
:1017100001D24446F7E7BDE8F8832DE9F0470446D7
:101720000E461F46BDF820A0904223D01546581AF9
:10173000FEF78CFF80468946281BFEF787FF02468E
:101740000B4640464946FFF715F9FFF7E1FA074611
:101750003046FFF7E7FB06462046FFF7E3FB394636
:10176000FEF76EFD01463046FFF726FB0646AC420B
:1017700035D94EE08B420BD218E033462246314633
:101780002046FFF787FF5046FFF742FE0136B6B20C
:10179000BE42F2D325E03B46224639462046FFF7BB
:1017A00079FF5046FFF734FE0137BFB2B742F2D39C
:1017B00017E02046FFF7B6FB3946FEF741FD3146FC
:1017C000FFF7FCFAFFF702FC81B20B4622462046E7
:1017D000FFF760FF5046FFF71BFE0134A4B2AC4296
:1017E000E7D3BDE8F0872846FFF79CFB3946FEF7B4
:1017F00027FD3146FFF7E2FAFFF7E8FB81B20B461F
:101800002A462846FFF746FF5046FFF701FE0135FE
:10181000ADB2A542E7D3E4E72DE9F04F85B00292DF
:101820009B46BDF938A0BDF83C300393D34558DD45
:10183000814688465CE00BF1010B0FFA8BFBD34528
:1018400000F3A7800298FEF701FF04460D465846B4
:10185000FEF7FCFE50A3D3E90023FEF761FF002250
:101860004F4BFFF787F802460B46CDE9002305F002
:101870000DF902460B4620462946FEF751FF064663
:101880000F464846FEF7E2FE32463B46FEF792FD23
:10189000FFF71EFA86B2DDE9000105F049F90246BC
:1018A0000B4620462946FEF73BFF04460D464046C0
:1018B000FEF7CCFE22462B46FEF77AFDFFF708FA2C
:1018C00081B2721E92B2EF2AB5D8B1F5A07FB2D81C
:1018D0000B4632463046FFF7DDFE0398FFF798FDD2
:1018E000A9E781468846AAE70AF1010A0FFA8AFAAF
:1018F000DA454EDC0298FEF7A9FE04460D46504636
:10190000FEF7A4FE24A3D3E90023FEF709FF00227B
:10191000234BFFF72FF802460B46CDE9002305F0D5
:10192000B5F802460B4620462946FEF7F9FE064664
:101930000F464846FEF78AFE32463B46FEF73AFD22
:10194000FFF7C6F986B2DDE9000105F0F1F80246BD
:101950000B4620462946FEF7E3FE04460D46404668
:10196000FEF774FE22462B46FEF722FDFFF7B0F984
:1019700081B2721E92B2EF2AB6D8B1F5A07FB3D869
:101980000B4632463046FFF785FE0398FFF740FDD1
:10199000AAE705B0BDE8F08F7A008BFCFA21094078
:1019A000008066402DE9F84F8246894617469846E2
:1019B0001046FEF73DFC8346002618E00020FFF7A6
:1019C00027FD0134072C0CDCBB5DA3F12002114B79
:1019D00003EB02135B5D234113F0010FEED0404691
:1019E000EDE701350F2D01DC0024EBE701365FFA4E
:1019F0008BF3B3420CDD0AEBC60080B209F10F0392
:101A0000C21D9BB292B24946FFF744FE0025E9E7AA
:101A1000BDE8F88F280300202DE9F04F83B03D4B3F
:101A200000221A60C3F8032078B1834600281DDB2A
:101A30005846FEF70BFE05F0D3F8FFF721F9824672
:101A40000146354804F05AF953E01C461846FEF7A3
:101A5000EFFB03462118314A1068E05090889379D3
:101A600088808B712B4803B0BDE8F08F294C20464D
:101A7000FEF7DEFB2A4B1B882352CBF1000B0FFA3B
:101A80008BFBD5E70023ADF804305046FEF7DEFDB2
:101A900004460D464FF00008DFF8889002460B46DA
:101AA0004046494605F0D0F806460F465846FEF730
:101AB000CDFD32463B46FEF75DFF00221A4BFEF796
:101AC00079FCFFF705F98DF8040001A9114804F02D
:101AD0003DF922462B464046494605F0B5F8FFF74A
:101AE000CFF89BFBF0F300FB13BB0FFA8BFB0AF163
:101AF000FF3ABAF1000FC5DA002300E00133052BED
:101B0000B0DC044AD25C002AF8D1024A2021D15428
:101B1000F4E700BFA8090020E4920008D89200086A
:101B2000E092000800002440000048402DE9F04108
:101B300082B0F822B821C820FFF7C7FD01904FF40A
:101B4000B476009600233C22A0217820FFF764FEA3
:101B50000E22C921FF20FFF7B8FD04460190532350
:101B6000009328234A22CA213C20FFF755FE019406
:101B7000272300936FF0730305229E217120FFF746
:101B80004BFE0094A3236E2296216120FFF7C5FD32
:101B900001944FF02F08CDF800806FF084030422E9
:101BA000A6216C20FFF738FE0094A82369229D210E
:101BB0005D20FFF7B2FD0194082300936FF05403FA
:101BC0000522A9216920FFF727FE0094A3236E2296
:101BD00096216120FFF7A1FD01945A2300932C2345
:101BE0001C22BD214B20FFF717FE0194FC27009714
:101BF00078230522A6214C20FFF70EFE0094B52382
:101C00005F22AA214920FFF788FD01943C25009519
:101C10006FF05B030522BA215C20FFF7FDFD019404
:101C20006FF0A10300936FF0510322229C215D20ED
:101C3000FFF7F2FDF722DD21AD20FFF746FD044658
:101C400001906FF0A50300936FF06F032022B52180
:101C50006F20FFF7E1FD01946FF0710300932423DF
:101C60004246A7217720FFF7D7FD019493230093E5
:101C70002A232122A1218420FFF7CEFD01945023A5
:101C800000936E232822B9217B20FFF7C5FD019424
:101C90006FF09B0300934F231622A7217E20FFF7AE
:101CA000BBFD01948C23009326230F22B8215F20D3
:101CB000FFF7B2FD0E2243213846FFF706FD0190E3
:101CC000009600230222B0215D20FFF7A5FDC82069
:101CD00000F076FF00230093E623B4226421284617
:101CE000FFF7FDFC02B0BDE8F081000010B584B242
:101CF000C4F57F44FA34A4B2084803685C6202F079
:101D0000E5F903E0054B1B685C6AA4B24FF6F97372
:101D10009C42F7D9014802F00FFA10BDD80C002000
:101D20002DE9F04389B000240494059406940794A7
:101D3000484B9A6942F010029A619A6902F01002C7
:101D40000092009A9A6942F020029A619A6902F020
:101D500020020192019A9A6942F004029A619A69FA
:101D600002F004020292029A9A6942F008029A6111
:101D70009B6903F008030393039B374F0122102153
:101D8000384601F0A1FBDFF8D490224645F230013D
:101D9000484601F099FBDFF8C88022464FF44C61B9
:101DA000404601F091FB22464FF47061384601F045
:101DB0008BFB4FF4005304930594069404A940460A
:101DC00001F062FA0225049505940126069604A9FD
:101DD000404601F059FA1023049305960696032312
:101DE000079304A9384601F04FFA4FF4A043049337
:101DF00005960696079504A9484601F045FA4FF462
:101E00004C63049305960695079504A9404601F096
:101E10003BFA4FF43063049305960695079504A9A1
:101E2000384601F031FA4FF4806304930596069426
:101E3000079504A9384601F027FA30230493059644
:101E40000695079504A9484601F01EFA09B0BDE8B9
:101E5000F08300BF0010024000080140000C014068
:101E60000010014000B5E3B0164802F02FF9082138
:101E7000154802F03FFC154B0025DD62DD63144C74
:101E80004FF4C27204F11001684603F045FE94E875
:101E90000F00FFF76DFA0F4B1D700EE00E4C4FF464
:101EA000C27204F11001684603F036FE94E80F0098
:101EB000FFF75EFA012003F039F9064B1B7B002B7C
:101EC000ECD1F7E7D80C0020200D002000340140B1
:101ED00000000020E40900209401002030B583B008
:101EE000FFF7EEFA002100914FF4A073F0220120D9
:101EF000FFF7F5FBFFF71AFEF822B821C820FFF71D
:101F0000E4FB0346AF4A0A211020FFF74BFDF822FD
:101F1000B821C820FFF7D9FB0346AB4A1E21322067
:101F2000FFF740FDF822B821C820FFF7CEFB03469B
:101F3000A64A32212A20FFF735FDF822B821C82011
:101F4000FFF7C3FB0346A24A46212A20FFF72AFDDA
:101F5000F822B821C820FFF7B8FB03469D4A5A2152
:101F60002A20FFF71FFDF822B821C820FFF7ADFB9C
:101F70000346994A6E212A20FFF714FDF822B82162
:101F8000C820FFF7A2FB0346944A82213020FFF7C6
:101F900009FD92E00134062C13DC914B1B5D032BF1
:101FA000F8D1611C8F4B83FB01235A18CB17C3EB6D
:101FB000A203C3EBC303CB1A894AD35C452BE9D1F7
:101FC00001E04FF0FF34B4F1FF3F00F0D080864BCA
:101FD00001229A700022FF211046FFF776FB03468C
:101FE000824A0A217A20FFF7DDFCA11C7D4B83FB8E
:101FF00001235A18CB17C3EBA203C3EBC303CB1ABD
:10200000774AD35C4E2B00F0A180502B00F09E80CD
:10201000462B59D0744B1B78002B40F0BB80E82234
:10202000D6218E20FFF751FB0346714A32217A20D8
:10203000FFF7B8FC6C4C94F90400FFF7EDFC054683
:10204000C0228021FF20FFF740FB03462A4646219D
:102050007A20FFF7A7FC94F90500FFF7DDFC0546A1
:10206000C0228021FF20FFF730FB03462A465A2179
:102070007A20FFF797FC94F90600FFF7CDFC0546A0
:10208000C0228021FF20FFF720FB03462A466E2155
:102090007A20FFF787FC6378012B40F08780E822E5
:1020A000D6218E20FFF711FB0346524A82217A2067
:1020B000FFF778FC012003F039F8072248494E4821
:1020C00003F09AFC002466E7E11C464B83FB010207
:1020D0005018CA17C2EBA002C2EBC2028A1A4049CA
:1020E0008A5C4148C271251D83FB05C202EB050CC9
:1020F000EA17C2EBAC02C2EBC202AA1A8A5C0272F5
:10210000651D83FB05C202EB050CEA17C2EBAC02AE
:10211000C2EBC202AA1A8D5C063483FB04231A198F
:10212000E317C3EBA203C3EBC303E31ACB5C05EBDA
:10213000032343810022FF211046FFF7C6FA03461E
:102140002E4A1E217A20FFF72DFC63E7264B002242
:10215000DA711A725A811E221146FF20FFF7B5FA72
:102160000346274A1E217A20FFF71CFC52E71E4B2C
:1021700002229A700022DA711A725A811E221146C6
:10218000FF20FFF7A2FA03461E4A0A217A20FFF732
:1021900009FC3FE73522D121FF20FFF796FA0346DD
:1021A000194A32217A20FFF7FDFB43E73522D1217E
:1021B000FF20FFF78AFA0346144A82217A20FFF7AC
:1021C000F1FB77E7209300082C9300083493000874
:1021D000409300084C93000858930008649300084B
:1021E000D009002093244992E40900206C93000850
:1021F00094930008A4930008381C002074930008EE
:10220000809300088C9300089C930008AC9300080E
:1022100008B5064C2046FEF757FF21460448FEF756
:1022200097FF012002F082FFF3E700BFD8090020EA
:10223000E40900200000000080B582B0584C002165
:10224000204602F057FA0421204602F053FA0821F2
:10225000204602F04FFA0C21204602F04BFA0C20E7
:1022600003F052FC04464F4B18600C2003F04CFC6A
:102270004D4F38600C2003F047FC4C4E30600C2072
:1022800003F042FC4A4D2860DFF828814FF40073C8
:1022900000934FF48073424647492046FEF7C9FF3A
:1022A0004FF4806400944FF4006342464349386819
:1022B000FEF7BFFF00944FF40063414A4149306884
:1022C000FEF7B7FF1023009320233F4A3F492868B9
:1022D000FEF7AFFF3E4C0021204602F00BFA04212E
:1022E000204602F007FA3B4B0121597000221A7177
:1022F0005A719A71D97019E0374CE06AFEF796F975
:102300001FA3D3E90023FEF70BFAFEF7E1FC60639D
:10231000E06AFEF78BF91CA3D3E90023FEF700FA6D
:10232000FEF7D6FCA063012002F000FF294C0094C8
:102330001F4B1B681D4A12681B4909681948006831
:10234000FEF7C4FF6378012BD6D0002BEBD1224CD3
:10235000E06AFEF76BF90EA3D3E90023FEF7E0F97C
:10236000FEF7B6FC6063E06AFEF760F90AA3D3E902
:102370000023FEF7D5F9FEF7ABFCA063D3E700BF5F
:10238000B81E85EB51B8AE3F0AD7A3703D0AB73FE0
:10239000B81E85EB51B89E3FB81E85EB51B8BE3FC5
:1023A000480C0020C4090020CC090020C8090020E6
:1023B000C0090020000801403400004038000040FF
:1023C000001001403C000040000C01404000004073
:1023D000900C0020E409002000080040034B03603B
:1023E000034B0B6080231360704700BFF40B002089
:1023F000F409002010B59CB0244C0DF1540CA646F5
:10240000BEE80F00ACE80F009EE807008CE807006C
:10241000002115A802F055FE1D4B18600DF1380C77
:1024200004F11C0EBEE80F00ACE80F009EE80700A8
:102430008CE8070000210EA802F043FE154B18603F
:102440000DF11C0C04F1380EBEE80F00ACE80F00D3
:102450009EE807008CE80700002107A802F031FE83
:102460000D4B1860EE4604F1540CBCE80F00AEE8CA
:102470000F009CE807008EE807000021684602F084
:1024800020FE064B18601CB010BD00BF689200080B
:10249000BC090020B0090020B8090020B4090020C0
:1024A00000B587B000230293039304930593009330
:1024B00001931548154A02603F22426083604FF63F
:1024C000FF72C2600361836101F094FF90B94FF421
:1024D0008053029302A90C4802F090F868B90023D7
:1024E000009301936946084802F07EF940B907B0AD
:1024F0005DF804FBFEF796FDE9E7FEF793FDEEE7D6
:10250000FEF790FDF3E700BFD80C0020000C004060
:1025100084B00368B3F1804F13D01B4A93421DD09F
:102520001A4A934225D01A4A934215D1194B9A69F7
:1025300042F400529A619B6903F400530393039B96
:102540000AE003F50433DA6942F00102DA61DB697B
:1025500003F001030093009B04B070470D4BDA6950
:1025600042F00402DA61DB6903F004030193019B8A
:10257000F2E7084BDA6942F00802DA61DB6903F03E
:1025800008030293029BE7E700080040000C0040AC
:10259000003401400010024000B589B000230493CC
:1025A0000593069307930368B3F1804F08D0234A3D
:1025B00093421AD0224A93422BD009B05DF804FB13
:1025C00003F504339A6942F004029A619B6903F0AF
:1025D00004030193019B0F230493022305930793A4
:1025E00004A9184800F050FEE7E7174B9A6942F03B
:1025F00008029A619B6903F008030293029BC023BF
:10260000049302230593079304A9104800F03CFEAD
:10261000D3E70D4B9A6942F010029A619B6903F06F
:1026200010030393039B4FF48073049302230593D9
:10263000079304A9064800F027FEBEE70008004003
:10264000003401400008014000100240000C01402D
:102650000010014000B58FB000230A930B930C9338
:102660000D930893099301930293039304930593A5
:102670000693079330484FF0804202603F22426049
:1026800083604FF6FF72C2600361836101F0B2FEA6
:10269000002839D14FF480530A930AA9264801F043
:1026A000ADFF002833D1244801F0D0FE002831D1FD
:1026B00000230893099308A91F4802F095F860BB0E
:1026C00060230193002202920392059201A91A4805
:1026D00001F020FF20BB04220DEB0201164801F09F
:1026E00019FF00BB082201A9134801F013FFE8B944
:1026F0000C2201A9104801F00DFFD0B90E48FFF7D8
:102700004BFF0FB05DF804FBFEF78CFCC2E7FEF751
:1027100089FCC8E7FEF786FCCAE7FEF783FCCFE733
:10272000FEF780FCD7E7FEF77DFCDBE7FEF77AFCDF
:10273000DEE7FEF777FCE1E7480C002000B58FB03C
:1027400000230A930B930C930D9308930993019321
:102750000293039304930593069307932548264A0F
:1027600002603F224260836044F61F62C2600361E0
:10277000836101F03FFE58BB4FF480530A930AA9CE
:102780001C4801F03BFF30BB1A4801F05FFE28BB3C
:1027900000230893099308A9164802F025F800BB06
:1027A00060230193002202920392059201A911482D
:1027B00001F0B0FEC0B904220DEB02010D4801F09A
:1027C000A9FEA0B90B48FFF7E7FE0FB05DF804FBC8
:1027D000FEF728FCD0E7FEF725FCD5E7FEF722FC44
:1027E000D6E7FEF71FFCDBE7FEF71CFCE3E7FEF78E
:1027F00019FCE7E7900C00200008004010B596B0E7
:102800000024129413941494159410941194099420
:102810000A940B940C940D940E940F94202221464C
:1028200001A803F087F92D482D4B03603F23436037
:1028300084604FF6FF73C36004614461846101F0FA
:10284000D9FD002838D14FF48053129312A92348A0
:1028500001F0D4FE002832D1204801F0F7FD002815
:1028600030D100231093119310A91C4801F0BCFF34
:1028700058BB6023099300230A930B930C930D9389
:102880000E930F93082209A9144801F043FEF8B9EA
:102890000023019302930393049305934FF4005292
:1028A0000692089301A90D4801F0DCFF98B90B4886
:1028B000FFF772FE16B010BDFEF7B4FBC3E7FEF7DC
:1028C000B1FBC9E7FEF7AEFBCBE7FEF7ABFBD0E70A
:1028D000FEF7A8FBDCE7FEF7A5FBE8E7200D0020EC
:1028E00000340140FEE7FEE7FEE7FEE7FEE7704743
:1028F00008B5024800F08AFE08BD00BFF41B0020A6
:1029000008B5024800F082FE08BD00BFB00D0020EF
:1029100008B5024801F065FC08BD00BF680D002045
:1029200000B583B0114B9A6942F001029A619A692D
:1029300002F001020092009ADA6942F08052DA61F4
:10294000DB6903F080530193019B00220F216FF09C
:10295000010000F0E3FF064A536823F0E06343F010
:102960008073536003B05DF804FB00BF00100240A9
:102970000000014000B589B001460022362000F079
:10298000CDFF362001F002F8154BDA6942F0100253
:10299000DA61DB6903F010030193019B02A903A82C
:1029A00000F054FC00F032FC43000E48A0FB03236F
:1029B0009B0C013B0C480D4A026040F2E732C260BA
:1029C000436000230361836001F014FD18B101200E
:1029D00009B05DF804FB044801F0C2FBF8E700BF52
:1029E0000010024083DE1B43680D002000100040F1
:1029F0007047000008B50F480F4B03604FF4827317
:102A0000436000238360C3600222026143614FF48C
:102A1000007282613822C261802202624362836254
:102A20000A23C36201F03CF800B908BDFEF7FAFAC8
:102A3000FBE700BFF40D00200030014008B50E4850
:102A40000E4B03604FF48273436000238360C360C6
:102A5000036143614FF4007282610822C261036224
:102A6000436283620A23C36201F01AF800B908BD09
:102A7000FEF7D8FAFBE700BF4C0E002000380040FC
:102A800010B588B000230493059306930793036859
:102A9000324A934205D00446314A934229D008B0C5
:102AA00010BD304B9A6942F480529A619A6902F4DF
:102AB00080520092009A9A6942F004029A619B69DE
:102AC00003F004030193019BA023049302230593C5
:102AD00003230793244C04A9204600F0D5FB402390
:102AE000049300230593069304A9204600F0CCFB31
:102AF000D5E71C4BDA6942F48042DA61DA6902F404
:102B000080420292029A9A6942F008029A619B6995
:102B100003F008030393039B4FF420430493022321
:102B200005930323079304A9104800F0ADFB104858
:102B3000104B036010234360002383608022C26037
:102B4000036143618361C36100F0DAFC18B9084B8B
:102B5000A3645C62A3E7FEF765FAF8E70030014082
:102B6000003800400010024000080140000C014005
:102B7000B00D00205800024008B5074A136843F022
:102B800010031360032000F0B7FE0F20FFF7F2FEE2
:102B9000FFF7C6FE002008BD00200240034A11686E
:102BA000034B1B780B441360704700BFA40E00203A
:102BB0001C090020014B1868704700BFA40E0020BC
:102BC00038B50446FFF7F6FF0546B4F1FF3F02D0E3
:102BD000044B1B781C44FFF7EDFF401BA042FAD3C7
:102BE00038BD00BF1C09002082B0084B1B68084A92
:102BF000A2FB03235B0A00FB03F3019300BF019BCD
:102C00005A1E0192002BF9D102B07047180900201A
:102C1000D34D6210002800F0F18170B582B00446F7
:102C2000036813F0010F2CD0994B5B6803F00C0381
:102C3000042B1DD0964B5B6803F00C03082B12D0BD
:102C40006368B3F5803F41D0002B55D103F1804339
:102C500003F504331A6822F480321A601A6822F4E9
:102C600080221A6037E08A4B5B6813F4803FE7D01C
:102C7000874B1B6813F4003F03D06368002B00F000
:102C8000BF81236813F0020F75D0814B5B6813F08E
:102C90000C0F5FD07E4B5B6803F00C03082B54D005
:102CA0002369002B00F08A807A4B01221A60FFF71B
:102CB00081FF0546764B1B6813F0020F75D1FFF7B5
:102CC00079FF401B0228F5D903209EE1704A136862
:102CD00043F480331360636843B3FFF76BFF05462B
:102CE0006B4B1B6813F4003FCBD1FFF763FF401B16
:102CF0006428F5D9032088E1B3F5A02F09D0644BEF
:102D00001A6822F480321A601A6822F480221A604B
:102D1000E1E703F18043A3F53C331A6842F48022D3
:102D20001A601A6842F480321A60D4E7FFF742FF53
:102D30000546574B1B6813F4003FA2D0FFF73AFF3C
:102D4000401B6428F5D903205FE1514B5B6813F405
:102D5000803FA5D14E4B1B6813F0020F03D02369AF
:102D6000012B40F04F814A4A136823F0F803616950
:102D700043EAC1031360236813F0080F33D0A3693B
:102D8000002B5CD0434B0122C3F88024FFF712FFD5
:102D900005463F4B5B6A13F0020F21D1FFF70AFF94
:102DA000401B0228F5D903202FE1394A136823F08C
:102DB000F803616943EAC1031360DCE7354B002285
:102DC0001A60FFF7F7FE0546314B1B6813F0020F40
:102DD000D1D0FFF7EFFE401B0228F5D9032014E104
:102DE0000120FFF701FF236813F0040F00F0968025
:102DF000274BDB6913F0805F34D1254BDA6942F051
:102E00008052DA61DB6903F080530193019B012555
:102E1000214B1B6813F4807F26D0E368012B3DD043
:102E2000002B53D103F1804303F504331A6A22F0D7
:102E300001021A621A6A22F004021A6233E0154B88
:102E40000022C3F88024FFF7B5FE0546104B5B6AED
:102E500013F0020FC7D0FFF7ADFE401B0228F5D9D3
:102E60000320D2E00025D3E70B4A136843F48073B4
:102E70001360FFF79FFE0646074B1B6813F4807F25
:102E8000CBD1FFF797FE801B6428F5D90320BCE067
:102E90000010024000004242007000405F4A136A86
:102EA00043F001031362E36833B3FFF783FE064682
:102EB0005A4B1B6A13F0020F2FD1FFF77BFE801BCA
:102EC00041F288339842F3D903209EE0052B09D0C4
:102ED000524B1A6A22F001021A621A6A22F00402A4
:102EE0001A62E0E74D4B1A6A42F004021A621A6A4B
:102EF00042F001021A62D6E7FFF75CFE0646474B36
:102F00001B6A13F0020F08D0FFF754FE801B41F23A
:102F100088339842F3D9032077E0E5B9E369002BC1
:102F200072D03E4A526802F00C02082A56D0022B98
:102F300017D03B4B00221A66FFF73CFE0446374B86
:102F40001B6813F0007F47D0FFF734FE001B0228F8
:102F5000F5D9032059E0314AD36923F08053D36176
:102F6000DCE72F4B00221A66FFF724FE05462B4BA9
:102F70001B6813F0007F06D0FFF71CFE401B0228E1
:102F8000F5D9032041E0236AB3F5803F1AD02349E5
:102F90004B6823F47413226A606A024313434B6044
:102FA0001F4B01221A66FFF705FE04461B4B1B68E8
:102FB00013F0007F0ED1FFF7FDFD001B0228F5D9AD
:102FC000032022E0154A536823F40033A1680B4321
:102FD0005360DCE7002018E0002016E0012B16D03B
:102FE0000E4B5B6803F48031226A914211D103F4E5
:102FF0007013626A93420ED1002006E001207047F0
:10300000012002E0012000E0002002B070BD01209C
:10301000FBE70120F9E70120F7E700BF00100240BD
:103020000000424286B0174B0FCB0DF1180C0CE993
:103030000F0040F20123ADF80430134B5B6803F03E
:103040000C02082A02D0114806B07047C3F383422D
:1030500018326A4412F8100C13F4803F0DD00A4B5A
:103060005B68C3F3404318336B4413F8143C074ABE
:1030700002FB00F0B0FBF3F0E6E7054B03FB00F0CA
:10308000E2E700BFCC9300080010024000127A0073
:1030900000093D00002800F0A08070B50D460446F0
:1030A000524B1B6803F007038B420BD24F4A136845
:1030B00023F007030B431360136803F007038B42ED
:1030C00040F08D80236813F0020F17D013F0040F27
:1030D00004D0474A536843F4E0635360236813F015
:1030E000080F04D0424A536843F460535360404A87
:1030F000536823F0F003A1680B435360236813F077
:10310000010F31D06368012B20D0022B25D0384A23
:10311000126812F0020F64D035494A6822F00302A7
:1031200013434B60FFF746FD0646314B5B6803F0E7
:103130000C036268B3EB820F16D0FFF73BFD801BD8
:1031400041F288339842F0D9032045E0284A1268BA
:1031500012F4003FE0D101203EE0254A126812F04F
:10316000007FD9D1012037E0204B1B6803F0070313
:10317000AB420AD91D4A136823F007032B4313609F
:10318000136803F00703AB422DD1236813F0040F3B
:1031900006D0174A536823F4E063E1680B43536099
:1031A000236813F0080F07D0114A536823F46053C3
:1031B000216943EAC1035360FFF734FF0C4B5B689E
:1031C000C3F303130B4AD35CD8400B4B18600B4B73
:1031D0001868FFF7CFFB002070BD01207047012069
:1031E000FAE70120F8E70120F6E700BF00200240DF
:1031F00000100240B49300081809002020090020A4
:10320000014B1868704700BF1809002008B5FFF788
:10321000F7FF044B5B68C3F30223034AD35CD84037
:1032200008BD00BF00100240C493000808B5FFF7B6
:10323000E7FF044B5B68C3F3C223034AD35CD84067
:1032400008BD00BF00100240C49300080F230360B4
:103250000B4B5A6802F0030242605A6802F0F00217
:1032600082605A6802F4E062C2605B68DB0803F4C3
:10327000E0630361034B1B6803F007030B607047B7
:10328000001002400020024070B582B00024A44625
:10329000B0E0874DAA4210D007D9864DAA420CD083
:1032A00005F58035AA4208D013E0A5F58015AA429D
:1032B00003D005F57025AA4207D18A68002A62D09A
:1032C000012A5BD04361082403E0A5F58015AA42DA
:1032D000F3D0BEF1FF0F58D80646BEF1FF0F56D807
:1032E0004FEA8C0233680F25954023EA050304FA60
:1032F00002F2134333604B6813F0805F78D06E4B5B
:103300009A6942F001029A619B6903F001030193FB
:10331000019B4FEA9C02951C684B53F825600CF00A
:1033200003039D000F23AB4026EA0306644B98423B
:1033300033D003F58063984200F0988003F58063F2
:10334000984200F0958003F58063984200F09280E7
:1033500003F58063984200F08F8003F58063984204
:1033600019D006231AE0CC68B3E7CC680434B0E780
:10337000CC680834ADE7CC680C34AAE703610824B4
:10338000A7E70024A5E70424A3E7061DA5E7ACF101
:1033900008029200A6E7052300E00023AB40334378
:1033A0000232464D45F822304B6813F4803F65D019
:1033B000444A136843EA0E0313604B6813F4003F5A
:1033C00062D0404A536843EA0E0353604B6813F4DB
:1033D000801F5FD03B4A936843EA0E0393604B68BB
:1033E00013F4001F5CD0374AD36843EA0E03D3605E
:1033F0000CF1010C0A6832FA0CF357D0012303FADE
:103400000CF302EA030E33EA0202F1D14A68122AEF
:103410003FF63FAF122A3FF65CAF01A555F822F008
:10342000BB3200086733000871330008833300089B
:10343000D3320008D3320008D3320008D332000858
:10344000D3320008D3320008D3320008D332000848
:10345000D3320008D3320008D3320008D332000838
:10346000D33200086B33000877330008012395E757
:10347000022393E7032391E704238FE7114A13689C
:1034800023EA0E03136098E70E4A536823EA0E03FB
:1034900053609BE70B4A936823EA0E0393609EE711
:1034A000084AD36823EA0E03D360A1E702B070BDD7
:1034B0000000221000003110001002400000014006
:1034C00000080140000401400AB10161704709048D
:1034D0000161704730B40124056CAC40C56B6C6071
:1034E000046863604368102B05D003689960036823
:1034F000DA6030BC704703689A600368D960F8E707
:1035000000283AD010B4024600681D4B984229D8D2
:103510001C4B03441C49A1FB03131B099B001364B0
:103520001A4BD363022382F82130016821F47F51C2
:1035300021F03001536894682343D468234314690D
:1035400023435469234394692343D46923430B439E
:10355000036000209063012382F8213082F820006C
:1035600010BC70470A4B03440749A1FB03131B0916
:103570009B001364074BD363D4E70120704700BF5F
:1035800007040240F8FFFDBFCDCCCCCC00000240C8
:10359000F8FBFDBF0004024038B5044690F8200057
:1035A000012831D0012084F8200094F8210001285E
:1035B00004D0002384F82030022038BD022084F893
:1035C00021000020A0632568286820F00100286001
:1035D0002046FFF77FFFE36A5BB12268136843F080
:1035E0000E0313602268136843F001031360002088
:1035F000E3E72268136823F004031360226813686A
:1036000043F00A031360EDE70220D6E738B5C36B39
:103610001A6804682568016C04238B40134200F08B
:103620009B8015F0040F00F09780236813F0200FA3
:1036300003D1236823F00403236003689A4A93426A
:1036400046D9783A934224D01432934228D0143287
:10365000934227D01432934227D01432934227D07A
:103660001432934227D01432934227D002F562726B
:10367000934226D01432934225D01432934224D060
:103680001432934202D04FF4802203E04FF4804280
:1036900000E00422854B5A60C36A03B1984738BDE5
:1036A0004022F7E74FF48062F4E74FF48042F1E7FD
:1036B0004FF48022EEE74FF48002EBE74FF0806298
:1036C000E8E70422E6E74022E4E74FF48062E1E71E
:1036D000774A934224D01432934225D01432934235
:1036E00024D01432934224D01432934224D0143282
:1036F000934224D01432934224D002F56272934252
:1037000023D01432934222D01432934221D0143267
:10371000934202D04FF4802203E04FF4804200E055
:103720000422644B5A60B7E74022FAE74FF4806204
:10373000F7E74FF48042F4E74FF48022F1E74FF4CB
:103740008002EEE74FF08062EBE70422E9E74022D7
:10375000E7E74FF48062E4E702238B40134200F076
:10376000AB8015F0020F00F0A780236813F0200F44
:1037700006D1236823F00A032360012380F8213057
:103780000368494A93424BD9783A934224D0143281
:1037900093422DD0143293422CD0143293422CD029
:1037A000143293422CD0143293422CD014329342D0
:1037B0002CD002F5627293422BD0143293422AD05D
:1037C0001432934229D01432934202D04FF4003283
:1037D00003E04FF4005200E00222344B5A60002311
:1037E00080F82030836A002B3FF459AF984756E7A2
:1037F0002022F2E74FF40072EFE74FF40052ECE7BB
:103800004FF40032E9E74FF40012E6E74FF00072A0
:10381000E3E70222E1E72022DFE74FF40072DCE772
:10382000234A934224D01432934225D01432934237
:1038300024D01432934224D01432934224D0143230
:10384000934224D01432934224D002F56272934200
:1038500023D01432934222D01432934221D0143216
:10386000934202D04FF4003203E04FF4005200E0E4
:103870000222104B5A60B2E72022FAE74FF400729E
:10388000F7E74FF40052F4E74FF40032F1E74FF45A
:103890000012EEE74FF00072EBE70222E9E7202288
:1038A000E7E74FF40072E4E78000024000040240C2
:1038B0000800024000000240082303FA01F111420F
:1038C0003FF4EDAE15F0080F3FF4E9AE236823F0A6
:1038D0000E032360026CC16B012303FA02F24A60FB
:1038E000836380F82130002380F82030036B002BA5
:1038F0003FF4D5AE9847D2E6074AD36823F4E06395
:103900001B041B0C000200F4E060034343F0BF63A0
:1039100043F40033D360704700ED00E000B5194B6D
:10392000DB68C3F30223C3F1070CBCF1040F28BF0B
:103930004FF0040C03F1040EBEF1060F18D9033B3F
:103940004FF0FF3E0EFA0CFC21EA0C0199400EFAF2
:1039500003F322EA0303194300280BDB0901C9B270
:1039600000F1604000F5614080F800135DF804FB51
:103970000023E5E700F00F000901C9B2024B19541A
:10398000F4E700BF00ED00E014ED00E0002807DBE5
:1039900000F01F02400901239340024A42F8203000
:1039A000704700BF00E100E02DE9F04782B0054616
:1039B000884617461E46FFF7FDF80A9B1B1A03EBC5
:1039C0000609FFF7F7F882462B4B1B68C3F3CB338E
:1039D00009FB03F301932B689C6838EA04030CBFCE
:1039E0004FF0010C4FF0000CBC4540D0B6F1FF3F4A
:1039F000F1D0FFF7DFF8A0EB0A0048450AD2B9F191
:103A0000000F07D0019A02B14A46019B013B019386
:103A10009146E0E72A68536823F0E00353606B683F
:103A2000B3F5827F0BD0AB6AB3F5005F14D00123EE
:103A300085F85130002385F85030032018E0AB683A
:103A4000B3F5004F02D0B3F5806FECD12A6813684C
:103A500023F040031360E6E72A68136823F4005359
:103A600013602A68136843F400531360DFE70020F3
:103A700002B0BDE8F08700BF1809002010B582B081
:103A800004460B46009200228021FFF78DFF08B903
:103A900002B010BD636D43F0200363650320F7E7B8
:103AA000002856D010B50446436A33B94368B3F5CD
:103AB000827F05D00023C36102E0002303614361DC
:103AC0000023A36294F85130002B3CD0022384F8E9
:103AD00051302268136823F040031360636803F4D5
:103AE0008273A26802F404421343E26802F40062A3
:103AF0001343226902F002021343626902F00102D9
:103B00001343A26902F400721343E26902F038021F
:103B10001343226A02F080021343A26A02F40052A5
:103B2000216813430B60638B226803F00403536026
:103B30002268D36923F40063D36100206065012308
:103B400084F8513010BD84F850302046FEF798FFBD
:103B5000BCE7012070472DE9F04383B01D4690F883
:103B60005030012B00F0D180044688469146012355
:103B700080F85030FFF71EF8074694F85160F6B20F
:103B8000012E40F0AF80B8F1000F00F0AC80B9F129
:103B9000000F00F0A880032384F8513000236365F0
:103BA000C4F83080A4F83490A4F83690A363A387B7
:103BB000E38763642364A368B3F5004F1ED02368D2
:103BC0001A6812F0400F03D11A6842F040021A60DE
:103BD000E368B3F5006F1CD0636813B1B9F1010F4E
:103BE00052D1226B236812781A73236B013323633B
:103BF000E38E9BB2013B9BB2E38645E022681368EB
:103C000023F0400313602268136843F48043136079
:103C1000D5E7636813B1B9F1010F16D1226B2368A0
:103C20001288DA60236B02332363E38E9BB2013B7D
:103C30009BB2E38609E0FEF7BDFFC01BA84202D39A
:103C4000B5F1FF3F59D1002D59D0E38E9BB2002B27
:103C500033D023689A6812F0020FECD0226B1288DE
:103C6000DA60236B02332363E38E9BB2013B9BB28A
:103C7000E386EAE7FEF79EFFC01BA84202D3B5F138
:103C8000FF3F3ED1002D3ED0E38E9BB2ABB1236807
:103C90009A6812F0020FEDD0226B12781A73236B20
:103CA00001332363B4F836C01FFA8CFC0CF1FF3CDF
:103CB0001FFA8CFCA4F836C0E6E73A4629462046AF
:103CC000FFF7DCFE08B120236365A36833B90193D5
:103CD0002368DA6801929B680193019B636D13B9B5
:103CE000002600E00226012384F85130002384F8E6
:103CF0005030304603B0BDE8F0830326F3E70326D7
:103D0000F1E70326EFE70326EDE70226F1E72DE9C9
:103D1000F04383B01F460A9D90F85030012B00F00D
:103D20001081044688469146012380F85030FEF702
:103D300041FF064694F85130DBB26268012B0AD08D
:103D4000B2F5827F40F0E380A268002A40F0E9806B
:103D5000042B40F0E880B8F1000F00F0E680B9F1E4
:103D6000000F00F0E480002F00F0E38094F8513061
:103D7000DBB2042B02D0052384F8513000236365A5
:103D8000C4F83890E787A787C4F83080E786A7860D
:103D90002364636423681A6812F0400F03D11A6821
:103DA00042F040021A60E368B3F5006F11D0636817
:103DB0000BB1012F0BD1226B236812781A73236B7E
:103DC00001332363E38E9BB2013B9BB2E386012761
:103DD0006BE063680BB1012F0BD1226B2368128853
:103DE000DA60236B02332363E38E9BB2013B9BB209
:103DF000E38601271CE023689A6812F0010F0ED0B9
:103E0000E28F92B25AB1DA68A36B1A80A36B0233C5
:103E1000A363E38F9BB2013B9BB2E3870127FEF7CD
:103E2000C9FE801BA84203D3B5F1FF3F40F0838059
:103E3000E38E9BB21BB9E38F9BB2002B53D0236858
:103E40009A6812F0020FD6D0E28E92B2002AD2D037
:103E5000002FD0D0226B1288DA60236B02332363E9
:103E6000E38E9BB2013B9BB2E3860027C3E7236846
:103E70009A6812F0010F0ED0E28F92B25AB1DA684E
:103E8000A36B1A70A36B0133A363E38F9BB2013B57
:103E90009BB2E3870127FEF78DFE831BAB4202D363
:103EA000B5F1FF3F49D1002D49D0E38E9BB213B944
:103EB000E38F9BB2BBB123689A6812F0020FD6D091
:103EC000E28E92B2002AD2D0002FD0D0226B12788C
:103ED0001A73236B01332363E38E9BB2013B9BB2C6
:103EE000E3860027C3E7324629462046FFF7C6FD92
:103EF00048B9A36863B901932368DA6801929B68A3
:103F00000193019B04E020236365012000E002206F
:103F1000012384F85130002384F8503003B0BDE809
:103F2000F0830220F4E70220F2E70120F0E701200D
:103F3000EEE70120ECE70320EAE70320E8E70320AF
:103F4000E6E70220EAE7000030B4036A23F0010349
:103F50000362036A4268846924F073040D682C4389
:103F600023F0020C8B6843EA0C03104DA84203D0E7
:103F700005F50065A84205D123F00803CD682B4361
:103F800023F00403094DA84203D005F50065A842BB
:103F900005D122F440724D692A438D692A4342605B
:103FA00084614A684263036230BC7047002C014060
:103FB00030B4036A23F480730362036A4268C469FD
:103FC00024F0730C0C6844EA0C0523F400738C682D
:103FD00043EA0423114CA04203D004F50064A0423C
:103FE00006D123F40063CC6843EA042323F48063FE
:103FF0000A4CA04203D004F50064A04207D122F489
:1040000040524C6942EA04128C6942EA041242604E
:10401000C5614A68C263036230BC7047002C01402E
:1040200030B4036A23F480530362036A4468C269AC
:1040300022F4E6420D6842EA052223F400538D681B
:1040400043EA0533094DA84203D005F50065A842AF
:1040500004D124F480444D6944EA85144460C2616B
:104060004A680264036230BC704700BF002C014004
:1040700010B4036A046A24F001040462846924F021
:10408000F00C4CEA021223F00A030B438261036234
:1040900010BC704710B4046A24F0100404628469F0
:1040A000036A24F4704C4CEA023223F0A00343EA82
:1040B00001138261036210BC7047836823F07003B0
:1040C0000B4343F0070383607047000090F83D30D6
:1040D000DBB2012B2AD1022380F83D300368154A58
:1040E000934218D002F50062934214D0B3F1804F8E
:1040F00011D0A2F5983293420DD002F5806293421E
:1041000009D002F58062934205D01A6842F001029C
:104110001A60002070479A6802F00702062A07D04A
:104120001A6842F001021A600020704701207047AF
:1041300000207047002C01400368196A41F21112F7
:10414000114208D1196A40F24442114203D11A685F
:1041500022F001021A60012380F83D3000207047F0
:1041600090F83D30DBB2012B2FD1022380F83D3097
:104170000268D36843F00103D3600368154A934291
:1041800018D002F50062934214D0B3F1804F11D0E1
:10419000A2F5983293420DD002F58062934209D085
:1041A00002F58062934205D01A6842F001021A605B
:1041B000002070479A6802F00702062A07D01A68A2
:1041C00042F001021A600020704701207047002071
:1041D000704700BF002C0140704770477047704720
:1041E000704710B5044603681A6912F0020F11D027
:1041F000DA6812F0020F0DD06FF002021A6101238B
:10420000037703689B6913F0030F70D0FFF7E6FF95
:104210000023237723681A6912F0040F12D0DA689A
:1042200012F0040F0ED06FF004021A6102232377FC
:1042300023689B6913F4407F5FD02046FFF7CEFFD1
:104240000023237723681A6912F0080F12D0DA6866
:1042500012F0080F0ED06FF008021A6104232377C2
:104260002368DB6913F0030F4ED02046FFF7B6FF3B
:104270000023237723681A6912F0100F12D0DA682E
:1042800012F0100F0ED06FF010021A61082323777E
:104290002368DB6913F4407F3DD02046FFF79EFF83
:1042A0000023237723681A6912F0010F03D0DA681C
:1042B00012F0010F36D123681A6912F0800F03D073
:1042C000DA6812F0800F34D123681A6912F0400FB7
:1042D00003D0DA6812F0400F32D123681A6912F065
:1042E000200F03D0DA6812F0200F30D110BDFFF795
:1042F00074FF2046FFF773FF8AE72046FFF76DFF44
:104300002046FFF76CFF9BE72046FFF766FF20463D
:10431000FFF765FFACE72046FFF75FFF2046FFF79A
:104320005EFFBDE76FF001021A612046FCF76EFEEA
:10433000C1E76FF080021A61204600F0BDFAC3E7C2
:104340006FF040021A612046FFF74AFFC5E76FF0A1
:1043500020021A61204600F0AEFAC7E70368244A3B
:10436000904212D002F5006290420ED0B0F1804F20
:104370000BD0A2F59832904207D002F580629042AD
:1043800003D002F58062904203D123F070034A68A3
:104390001343174A904212D002F5006290420ED0A9
:1043A000B0F1804F0BD0A2F59832904207D002F5C1
:1043B0008062904203D002F58062904203D123F4E0
:1043C0004073CA68134323F080034A6913430360B0
:1043D0008B68C3620B688362054B984203D003F578
:1043E0000063984201D10B69036301234361704765
:1043F000002C014040B310B5044690F83D30F3B1B5
:10440000022384F83D30214651F8040BFFF7A6FF44
:10441000012384F8463084F83E3084F83F3084F835
:10442000403084F8413084F8423084F8433084F8D6
:10443000443084F8453084F83D30002010BD80F8C9
:104440003C30FEF765F8DBE70120704740B310B55C
:10445000044690F83D30F3B1022384F83D30214604
:1044600051F8040BFFF77AFF012384F8463084F8F3
:104470003E3084F83F3084F8403084F8413084F88E
:10448000423084F8433084F8443084F8453084F86E
:104490003D30002010BD80F83C30FFF79DFEDBE78B
:1044A0000120704730B4036A23F010030362036AEB
:1044B0004468826922F4E6420D6842EA052223F04C
:1044C00020038D6843EA0513114DA84203D005F57A
:1044D0000065A84206D123F08003CD6843EA0513A6
:1044E00023F040030A4DA84203D005F50065A84219
:1044F00007D124F440644D6944EA85048D6944EA97
:104500008504446082614A688263036230BC7047FC
:10451000002C014038B590F83C30012B60D00446A7
:104520000D46012380F83C300C2A1AD8DFE802F04F
:10453000071919191D191919311919194400006899
:10454000FFF702FD2268936943F008039361226834
:10455000936923F0040393612268936929690B43EB
:104560009361002084F83C0038BD0068FFF79AFF93
:104570002268936943F4006393612268936923F48A
:104580008063936122689369296943EA01239361F7
:10459000E7E70068FFF70CFD2268D36943F00803E2
:1045A000D3612268D36923F00403D3612268D369FD
:1045B00029690B43D361D4E70068FFF731FD226816
:1045C000D36943F40063D3612268D36923F4806321
:1045D000D3612268D369296943EA0123D361C0E723
:1045E0000220C1E710B4846824F47F4C42EA03221D
:1045F0000A4342EA0C02826010BC704790F83C30DB
:10460000012B66D010B50446012380F83C3002230C
:1046100080F83D300268936823F47F4323F07703EA
:1046200093600B68602B40D022D8402B47D00BD929
:10463000502B0ED1CA6849680068FFF719FD502158
:104640002068FFF73AFD04E0202B0CD008D9302B6E
:1046500009D0012384F83D30002084F83C0010BDCF
:104660000BB1102BF5D119462068FFF726FDF0E7B6
:10467000702B0ED0B3F5005FEBD1CB684A68896828
:104680000068FFF7AFFF2268936843F480439360AC
:10469000DFE7CB684A6889680068FFF7A3FF2268F4
:1046A000936843F077039360D3E7CA68496800686A
:1046B000FFF7F0FC60212068FFF7FFFCC9E7CA683C
:1046C00049680068FFF7D4FC40212068FFF7F5FC3B
:1046D000BFE70220704701F01F01012303FA01FC2C
:1046E000036A23EA0C030362036A02FA01F10B4333
:1046F0000362704710B50446084600293AD194F881
:104700003E30DBB2013B18BF0123002B66D10028ED
:1047100049D1022384F83E30012201462068FFF788
:10472000DAFF23682F4A934203D002F500629342D6
:1047300003D15A6C42F400425A642368294A9342D6
:1047400041D002F5006293423DD0B3F1804F3AD0A0
:10475000A2F59832934236D002F58062934232D06D
:1047600002F5806293422ED01A6842F001021A606C
:10477000002032E0042908D008290DD094F84130F7
:10478000DBB2013B18BF0123BFE794F83F30DBB237
:10479000013B18BF0123B8E794F84030DBB2013B7E
:1047A00018BF0123B1E7042805D0082807D0022349
:1047B00084F84130B0E7022384F83F30ACE70223AD
:1047C00084F84030A8E79A6802F00702062A07D06A
:1047D0001A6842F001021A60002010BD0120FCE7B7
:1047E0000020FAE7002C014090F83C30012B34D037
:1047F00010B4012380F83C30022380F83D30036878
:104800005A689C6822F0700C0A6842EA0C025A60EE
:104810000368134A934212D002F5006293420ED00D
:10482000B3F1804F0BD0A2F59832934207D002F536
:104830008062934203D002F58062934204D124F057
:1048400080044A6814439C60012380F83D300023B3
:1048500080F83C30184610BC70470220704700BFFB
:10486000002C014090F83C30012B22D0012380F82D
:104870003C30CB6823F440738A68134323F480638D
:104880004A68134323F400630A68134323F48053F4
:104890000A69134323F400534A69134323F4804302
:1048A000CA69134302685364002380F83C301846F9
:1048B0007047022070477047704700F1080343605B
:1048C0004FF0FF328260C3600361002303607047D2
:1048D00000230361704743684B609A688A605160A7
:1048E00099600861036801330360704730B40D6854
:1048F000B5F1FF3F11D000F108031C465B681A6850
:10490000AA42FAD963684B6099608C606160086163
:1049100003680133036030BC70470469F2E7036940
:10492000416882688A60416851605A68824206D054
:10493000002202611A68013A1A601868704782689A
:104940005A60F5E7084B1B681B6823B9074B4FF00B
:10495000FF321A607047044B1B68DB68DB685A68DB
:10496000024B1A60704700BFAC0E0020840F00207D
:104970002DE9F04707469846089DDDF824900A9CEB
:10498000266B02F18042013A06EB820626F007060A
:104990004FF0000CBCF10F0F0BD811F80C2004EBFA
:1049A0000C0383F8342011F80C3013B10CF1010C16
:1049B000F0E7002384F84330062D00D90625E56290
:1049C00065644FF0000AC4F848A0201DFFF780FF7F
:1049D00004F11800FFF77CFF2461C5F10705A5610C
:1049E0006462C4F84CA084F850A042463946304670
:1049F00000F0E6FC2060B9F1000F01D0C9F80040DA
:104A0000BDE8F08738B5002407E004EB840293008A
:104A10000E481844FFF751FF0134062CF5D90C4D10
:104A20002846FFF74AFF0B4C2046FFF746FF0A488F
:104A3000FFF743FF0948FFF740FF0948FFF73DFF35
:104A4000084B1D60084B1C6038BD00BFB40E002031
:104A5000580F00206C0F00208C0F0020B80F002092
:104A6000A40F0020AC0E0020B00E002010B50446AC
:104A700000F0D0FC214A136801331360204B1B68FF
:104A80005BB1204B1B686BB91D4B1B68DA6AE36A8C
:104A90009A4207D81A4B1C6004E0194B1C6013683B
:104AA000012B28D0184A136801331360E06A0123F0
:104AB0008340164A11680B43136000EB8000211DF0
:104AC000134B03EB8000FFF706FF00F0C5FC0D4B16
:104AD0001B687BB10A4B1B68DA6AE36A9A4209D207
:104AE0004FF0E0234FF08052C3F8042DBFF34F8FF7
:104AF000BFF36F8F10BDFFF785FFD3E7400F002096
:104B0000A80E0020A00F0020500F0020540F0020FE
:104B1000B40E002010B5044690F8513063B1012B5B
:104B200011D0022B0ED04FF0500383F31188BFF346
:104B30006F8FBFF34F8FFEE7006B00F0D9FB20466D
:104B400000F0D6FB10BD00F0D3FBFBE70F4B1B685A
:104B5000D3B110B500F05EFC0D4BDB68DC68201DA6
:104B6000FFF7DDFE0B4A1368013B1360074A136829
:104B7000013B136000F070FC2046FFF7CBFF034BB6
:104B80001B68002BE6D110BD704700BF440F00200A
:104B9000B80F0020400F002008B5FFF7D7FF074BE4
:104BA0001B68012BF9D94FF0E0234FF08052C3F876
:104BB000042DBFF34F8FBFF36F8FEEE7B40E0020CD
:104BC00070B504460D461D4B1E681D4B1868043019
:104BD000FFF7A5FE50B91A4B1B68DA6A012303FAE6
:104BE00002F218490B6823EA02030B60B4F1FF3F9D
:104BF0000DD03444124B1B685C60A64210D9124B96
:104C000018680F4B19680431FFF770FE70BD002D56
:104C1000EFD00B4B196804310C48FFF75CFEF5E749
:104C20000B4B1868064B19680431FFF75FFE094B00
:104C30001B68A342EAD9074B1C60E7E7CC0F0020B2
:104C4000A80E0020540F0020B00E0020A40F00205A
:104C5000AC0E0020840F002030B587B00B9C7CB1D7
:104C60000C9DB5B154250495049D542D1AD04FF0D8
:104C7000500383F31188BFF36F8FBFF34F8FFEE7AD
:104C80004FF0500383F31188BFF36F8FBFF34F8F43
:104C9000FEE74FF0500383F31188BFF36F8FBFF32C
:104CA0004F8FFEE70C9D2C63022485F851400024B1
:104CB0000394029505AC01940A9C0094FFF758FEFA
:104CC0000C98FFF7D3FE059807B030BD2DE9F043EF
:104CD00085B00746884614461E46900000F090FABC
:104CE00000B38146542000F08BFA0546B0B1C0F8FD
:104CF0003090E5B1002385F85130039302950D9B68
:104D000001930C9B00933346224641463846FFF7F9
:104D10002FFE2846FFF7AAFE012005E0484600F0D6
:104D2000E7FAE6E74FF0FF3005B0BDE8F0834FF05B
:104D3000FF30F9E710B588B000240594069407AA5F
:104D400006A905A8FDF74AFB059B0293069B019364
:104D500000942346079A0E490E48FFF77DFF0E4B3D
:104D6000186090B14FF0500383F31188BFF36F8F39
:104D7000BFF34F8F094B4FF0FF321A60084B0122EF
:104D80001A60084B1C6000F0CFFB08B010BD00BFDC
:104D9000E0930008994B0008800F0020840F00204A
:104DA000A00F0020CC0F0020024A136801331360CB
:104DB000704700BF4C0F0020F8B53A4B1B68002B22
:104DC00064D1394B1D6801351D60C5B9374B1B686F
:104DD0001B6843B14FF0500383F31188BFF36F8F0B
:104DE000BFF34F8FFEE7314A1168314B18681060EE
:104DF0001960304A136801331360FFF7A3FD2E4B8F
:104E00001B68AB4238D900272C4B1B68DB6A03EBCD
:104E100083039A002A4B9B58012B3CD901273AE087
:104E20000127224B1B681B6843B3204B1B68DB68C0
:104E3000DC6863689D4226D3261D3046FFF76FFD70
:104E4000A36A1BB104F11800FFF769FDE36A0122B0
:104E50009A401C49086802430A6003EB83039A00E6
:104E6000314617481044FFF736FDE26A134B1B68C2
:104E7000DB6A9A42D4D2D4E70027D2E70E4B4FF038
:104E8000FF321A60C0E70C4A1360BDE70E4A136890
:104E90000133136000270D4B1B6803B1012738460F
:104EA000F8BD00BF4C0F0020CC0F0020AC0E00203E
:104EB000B00E0020880F0020840F0020A80E0020D4
:104EC000B40E0020540F0020480F0020D00F002007
:104ED00038B5354B1B6843B94FF0500383F3118845
:104EE000BFF36F8FBFF34F8FFEE700F093FA2E4BA7
:104EF0001A68013A1A601B68002B4FD12B4B1B68B4
:104F00000BB900244BE00024294B1B681BB3284B32
:104F1000DB68DC6804F11800FFF701FD251D284659
:104F2000FFF7FDFCE06A01238340224A11680B432E
:104F3000136000EB800029461F4B03EB8000FFF756
:104F4000CAFCE26A1D4B1B68DB6A9A42DCD31C4B2D
:104F500001221A60D8E70CB1FFF7F4FC194B1C686A
:104F600084B9174B1C68D4B14FF0E0234FF0805246
:104F7000C3F8042DBFF34F8FBFF36F8F01240EE0F2
:104F8000013C07D0FFF718FF0028F9D00C4B012295
:104F90001A60F5E70B4B00221A60E2E7002400F0EC
:104FA0005BFA204638BD00BF4C0F0020400F0020A8
:104FB0008C0F0020540F0020B40E0020A80E0020FB
:104FC000D00F0020480F002010B5A8B10446104BA8
:104FD0001B6843B14FF0500383F31188BFF36F8F09
:104FE000BFF34F8FFEE7FFF7DFFE00212046FFF7FC
:104FF000E7FDFFF76DFF48B94FF0E0234FF0805217
:10500000C3F8042DBFF34F8FBFF36F8F10BD00BFE8
:105010004C0F0020204B1B681BB1204B01221A6053
:1050200070471E4B00221A601D4B1B68B3FA83F3B6
:10503000DBB2C3F11F0303EB83018A0019498A58CD
:1050400042B94FF0500383F31188BFF36F8FBFF362
:105050004F8FFEE7134903EB830082000A44506838
:105060004068506003EB830C4FEA8C020832114415
:10507000884209D003EB83039A000A4B13445B6810
:10508000DA68094B1A607047406862469100054A29
:105090000A445060EEE700BF4C0F0020D00F002004
:1050A000540F0020B40E0020A80E0020842801D048
:1050B000033070470020704708B5FFF73BFE002023
:1050C00008BD2DE9F04387B004460F464569BDB1E0
:1050D0008669AEB1D0F80480D0F80090B0F908002D
:1050E000FFF7E4FF0296019500903B46226949468E
:1050F0004046FFF7B1FD0590059807B0BDE8F08385
:1051000065682668D4F81080B4F90800FFF7CEFF70
:1051100005AB019300903B461FFA88F231462846C2
:10512000FFF7D4FD0128E7D00020E6E708B500B975
:105130000120FFF749FF002008BD0000124A12F0CD
:10514000070F1ED0D11D21F00701C1F540631344A4
:105150000A460E480260002141601344083B23F0D8
:1051600007030B48036059601960991A5160136076
:10517000084B1960084B1960084B4FF000421A6049
:1051800070474FF44063E4E7D80F0020E41B002091
:10519000D40F0020E01B0020DC1B0020D81B0020C7
:1051A000154B1A461B688342FBD3516802EB010C76
:1051B000844509D0416800EB010C634509D00360C8
:1051C000904218D01060704740680144516010460A
:1051D000F0E710B4094C2468A3420AD05B68194474
:1051E000416013681B680360904200D0106010BCDF
:1051F00070470460F8E77047E41B0020D40F0020DC
:1052000070B50546FFF7D0FD344B1B68A3B1344B96
:105210001B681D424AD135B1083515F0070F02D081
:1052200025F007050835002D42D02E4B1B68AB42F8
:105230004DD32D4A146804E0FFF780FFE7E72246CC
:105240001C466368AB4202D22368002BF7D1234B84
:105250001B68A3423DD01668083623681360636854
:105260005B1B102B10D9601910F0070F08D04FF0FE
:10527000500383F31188BFF36F8FBFF34F8FFEE7A7
:1052800043606560FFF78CFF626816490B689B1AE4
:105290000B60164909688B4201D214490B60104B10
:1052A0001B68134363600023236002E0002600E0D4
:1052B0000026FFF70DFE16F0070F0CD04FF050033D
:1052C00083F31188BFF36F8FBFF34F8FFEE7002684
:1052D000EFE70026EDE7304670BD00BFD40F002099
:1052E000D81B0020DC1B0020E41B0020E01B00205A
:1052F00080B338B50446A0F1080550F8043C164ABE
:105300001268134208D14FF0500383F31188BFF3A2
:105310006F8FBFF34F8FFEE750F8081C41B14FF07D
:10532000500383F31188BFF36F8FBFF34F8FFEE7F6
:1053300023EA020340F8043CFFF736FD54F8041C4E
:10534000064A13680B4413602846FFF729FFFFF74E
:10535000BFFD38BD704700BFD81B0020DC1B0020FC
:1053600082B0002301930D4B1B68B3F1FF3F08D0BF
:105370004FF0500383F31188BFF36F8FBFF34F8F4C
:10538000FEE74FF0500383F31188BFF36F8FBFF335
:105390004F8F019B002BFCD002B0704724090020E6
:1053A00006480068006880F3088862B661B6BFF3FB
:1053B0004F8FBFF36F8F00DF00BF000008ED00E0EC
:1053C0004FF0807340F8043C21F0010140F8081CC4
:1053D000034B40F80C3C40F8202C4038704700BF8D
:1053E0006153000800000000000000000000000001
:1053F000074B19680868B0E8F00F80F30988BFF31D
:105400006F8F4FF0000080F311884EF00D0E704743
:10541000A80E00204FF0500383F31188BFF36F8F65
:10542000BFF34F8F0B4A136801331360012B00D079
:1054300070474FF0E023D3F8043D13F0FF0FF7D08F
:105440004FF0500383F31188BFF36F8FBFF34F8F7B
:10545000FEE700BF24090020094B1B6843B94FF049
:10546000500383F31188BFF36F8FBFF34F8FFEE7B5
:10547000013B034A13600BB983F31188704700BFE7
:1054800024090020000000000000000000000000CF
:10549000EFF30980BFF36F8F0D4B1A6820E9F00F0F
:1054A00010602DE908404FF0500080F31188FFF79D
:1054B000B1FD4FF0000080F31188BDE80840196885
:1054C0000868B0E8F00F80F30988BFF36F8F70476A
:1054D000A80E002008B54FF0500383F31188BFF3E6
:1054E0006F8FBFF34F8FFFF767FC28B14FF0E023BA
:1054F0004FF08052C3F8042D002383F3118808BDB8
:105500004FF0E022002313619361054B1B680549AE
:10551000A1FB03139B09013B5361072313617047F0
:1055200018090020D34D621010B582B02A4B1A78AA
:10553000D2B20192FF221A701B78DBB28DF80330D1
:105540009DF8033003F05003244A1370244B0722C4
:105550001A6009E0224A1368013B13609DF803308A
:105560005B00DBB28DF803309DF8033013F0800F41
:10557000F0D11B4B1B68032B08D04FF0500383F373
:105580001188BFF36F8FBFF34F8FFEE71B02144AE2
:10559000136003F4E0631360019BDBB20E4A1370E7
:1055A0004FF0E023D3F8202D42F47002C3F8202DF1
:1055B000D3F8202D42F07042C3F8202DFFF7A0FF52
:1055C0000024084B1C60FFF7EBFEFFF723FDFFF7FD
:1055D000C7FE204602B010BD00E400E0EC1B002036
:1055E000F01B00202409002008B50A480A4B03607C
:1055F0004FF41653436000238360C36003610C22A1
:1056000042618361C36100F01FF900B908BDFBF777
:1056100009FDFBE77C1C00200050004008B50A484B
:105620000A4B03604FF41653436000238360C3604A
:1056300003610C2242618361C36100F005F900B986
:1056400008BDFBF7EFFCFBE7381C002000480040DA
:1056500070B58AB0002306930793089309930368F3
:105660003B4A934205D004463A4A934232D00AB0AC
:1056700070BD394BDA6942F48012DA61DA6902F4FA
:1056800080120192019A9A6942F010029A619A6915
:1056900002F010020292029A9A6942F020029A6184
:1056A0009B6903F020030393039B4FF480530693FD
:1056B000022307930323099306A92848FDF7E4FD75
:1056C0000423069300230793089306A92448FDF7B3
:1056D000DBFDCCE7204BDA6942F48022DA61DA693B
:1056E00002F480220492049A9A6942F008029A61B4
:1056F0009B6903F008030593059B4FF480630693B1
:105700000223079303230993164E06A93046FDF79B
:10571000BBFD4FF40063069300250795089506A985
:105720003046FDF7B1FD1048104B036045608560C1
:105730008023C360056145618561C561FDF7E0FEB9
:1057400018B9094BA3635C6291E7FBF76BFCF8E7C0
:10575000005000400048004000100240001001408E
:1057600000140140000C0140F41B002030000240F6
:105770000268D36823F0C003D360202380F83D3053
:1057800070470268D36823F49073D360026853694A
:1057900023F001035361036B012B05D0202380F814
:1057A0003E300023036370470268D36823F0100380
:1057B000D360F3E710B504460268136923F440533D
:1057C000C1680B43136183680269134342691A433A
:1057D0000168CB6823F4B05323F00C031343CB6070
:1057E0000268536923F4407381690B435361026873
:1057F000134B9A4220D0FDF709FD024602EB8202CC
:1058000002EB820263689B00B2FBF3F20D48A0FB3F
:1058100002314909642303FB11231B013233A0FB2E
:1058200003235B0903F0F00202EB011203F00F0304
:10583000216813448B6010BDFDF7F8FC0246DDE7DC
:10584000003801401F85EB5158B310B5044690F85D
:105850003D300BB3242384F83D302268D36823F411
:105860000053D3602046FFF7A5FF2268136923F495
:10587000904313612268536923F02A03536122681D
:10588000D36843F40053D36000202064202384F8BD
:105890003D3084F83E3010BD80F83C30FFF7D8FE34
:1058A000D8E70120704770477047704710B5446AC9
:1058B00023685A6994F83D30DBB2212B10D023685D
:1058C0005A6902F0400294F83E30DBB2222B11D02C
:1058D000236C43F0100323642046FFF7E6FF10BD5E
:1058E00002F08002002AEAD00023E3842046FFF77A
:1058F0003FFFE4E7002AEBD00023E3852046FFF7D3
:1059000040FFE5E7704708B5406A036B012B02D002
:10591000FFF7CAFF08BD818D4908FFF7F3FFF9E7DC
:1059200008B50346406A1B681B6813F0200F16D1A8
:105930000023C3850268D36823F48073D3600268B0
:10594000536923F0010353610268536923F0400354
:105950005361202380F83E30036B012B05D0036B8D
:10596000012B08D0FFF79FFF08BD0268D36823F022
:105970001003D360F3E7818DFFF7C4FFF4E7000065
:1059800030B583B0044613468162828500250564E4
:10599000222280F83E20826B14489062A26B144849
:1059A000D062A26B13481063A26B556320680A464D
:1059B000011DA06BFDF7F0FD019523681A680192A7
:1059C0005A680192019A84F83C50DA6842F4807275
:1059D000DA602268536943F0010353612268536916
:1059E00043F040035361284603B030BD21590008FD
:1059F00007590008AD58000808B590F83E30DBB2F2
:105A0000202B0DD171B17AB190F83C30012B0DD023
:105A1000012380F83C3000230363FFF7B1FF00E06F
:105A2000022008BD0120FCE70120FAE70220F8E788
:105A300000B583B00E4B5A6942F001025A615B69AE
:105A400003F001030193019B002205210D20FDF7C6
:105A500065FF0D20FDF79AFF002205210F20FDF7BD
:105A60005DFF0F20FDF792FF03B05DF804FB00BF60
:105A7000001002400C480D490D4A002302E0D458A2
:105A8000C4500433C4188C42F9D30A4A0A4C002388
:105A900001E013600432A242FBD3FCF7A9FF00F03F
:105AA0000FF8FBF7F3FA7047000000208C09002084
:105AB000609600088C090020D41C0020FEE700003E
:105AC00070B500260C4D0D4C641BA410A64209D1E4
:105AD00003F0BEFB00260A4D0A4C641BA410A6422C
